:03000000020D846A
:0C0D8400787FE4F6D8FD758175020DCB78
:1010570047513A004C75780044697374616E636553
:101067003A0030313233343536373839006D6D0058
:100F720002240000046A0000000002210000500068
:100F8200000000000000000000000000000000005F
:0C0F920000027201F4016E00026F00000A
:060A5F00120E9112107747
:100A6500E4F508F509AF6DAE6CAD6BAC6A120944DF
:100A75008E0A8F0BD290C2A012111730A0FDD28C16
:100A850020A0FDC28C120F42AE0AAF0B7C037DE89D
:100A95001209D78F26AE0AAF0B7C037DE81209D762
:100AA5007E007F64CFCDCFCECCCE1209D78F27AEB7
:100AB5000AAF0B7C007D641209D77E007F0ACFCD7B
:100AC500CFCECCCE1209D78F28AE0AAF0B7C007DD6
:100AD5000A1209D78D29D3E50B9573E50A9572504E
:100AE50004C2908002D290E522640145217021C2A2
:100AF500ACF508F50974262509F8E6F5993099FD50
:100B0500C2990509E509700205086404450870E500
:100B15007F647E00120FD3E57114602014603014D9
:100B25006040146050240470557D417F9012103749
:100B35007F90121015752A008F2B80427D427F9081
:100B45001210377F90121015752C008F2D802F7D78
:100B5500437F901210377F90121015752E008F2F3E
:100B6500801C7D407F901210377F901210157530D4
:100B7500008F318009AB337D407F90120F9F853008
:100B8500328531330571E571D394044003E4F57181
:100B9500AE30AF317C007D641209D77C007D0A122E
:100BA50009D7AE04AF05E4FCFD900000120A3AAE89
:100BB50030AF317C007D0A1209D77C007D0A12090D
:100BC500D7AE04AF05E4FCFD900004120A3AAE303E
:100BD500AF317C007D0A1209D7AE04AF05E4FCFDF8
:100BE500900008120A3AAE30AF317C007D0A120936
:100BF500C5AA06AB071209D7AE04AF05E4FCFD9004
:100C0500000C120A3AD3EB940AEA94055004D2A2D6
:100C1500801EAE30AF317C007D0A1209C5C3EF944A
:100C250014EE94054010EF941EEE94055008C2A2F0
:100C3500D2A3D2A48028C3EF941EEE94054010EFF2
:100C45009428EE94055008C2A2C2A3D2A4800FC373
:100C5500EF9428EE94054006C2A2C2A3C2A4E522E1
:100C6500640145217035F508F509E509AE087802F6
:100C7500C333CE33CED8F92400F58274003EF58314
:100C8500A3A3A3E0F5993099FDC2990509E509707B
:0E0C95000205086404450870D1D2AC120CA60A
:030CA300020A65DD
:0C111700D2A17F0F7E001210D7C2A122CF
:10107700758921E4F58CF58A758BFA758DFAD28E10
:0D108700C29FD29ED29CD2A9D2AFD2AC2281
:03002300020E10BA
:100E1000C0E0C0F0C083C082C0D075D000C000C0A8
:0D0E200001C002C003C004C005C006C00729
:100E2D00AF997574008F75E574C4F854F0C868FEF9
:100E3D00E575C4540F48FFE575540FFB7A007C002F
:100E4D007D0A1209C5EF2BFFEA3EFE7D641209C52E
:100E5D008E728F73C2907FE87E03120FD3D290757E
:090E6D002100752201C298C29C0B
:100E7600D007D006D005D004D003D002D001D000D0
:0B0E8600D0D0D082D083D0F0D0E0327A
:03000B00021123BC
:03112300C2A03235
:1010D700D3EF9400EE9400400800EF1F70F21E80DB
:0110E700EF19
:0110E80022E5
:100F4200AF8CEFFEAD8A7C00E42DF525EC3EF52456
:100F5200FCAD25E412090B7B917AED793C783E12C7
:100F620008008F6D8E6C8D6B8C6AE4F58CF58A228D
:100E9100C2A77F381210FD7F0C1210FD7F061210C1
:100EA100FD7F011210FD7F801210FDE4F50C7BFF28
:100EB1007A1079571210C2C3E50C9FEE6480F87462
:100EC10080985011E50C90105793FF12110A120FE0
:100ED100CF050C80D97FC01210FDE4F50C7BFF7AA1
:100EE10010795F1210C2C3E50C9FEE6480F8748024
:100EF100985011E50C90105F93FF12110A120FCF59
:040F0100050C80D982
:010F050022C9
:100CA600E4F50C7BFF7A1079571210C2EF248012FC
:100CB60010FAE50C25E025E02400F582E43400F581
:100CC60083A3A3A3E090106993FF12110A120FCF1A
:100CD600050CE50CC3940440CAE4F50C7BFF7A10BE
:100CE600795B1210C2C3E50C9FEE6480F87480989D
:100CF60050207BFF7A1079571210C2EF248412100D
:100D0600FAE50C90105B93FF12110A120FCF050C37
:100D160080CAE4F50C7BFF7A10795F1210C2EF24CB
:100D2600C0250CFF1210FD7426250CF8E6901069FC
:100D360093FF12110A120FCF050CE50CC394044061
:100D4600D4E4F50C7BFF7A1079741210C2C3E50C5B
:100D56009FEE6480F874809850237BFF7A10795F49
:100D66001210C2EF24C4250CFF1210FDE50C9010E2
:0D0D76007493FF12110A120FCF050C80C7F5
:010D8300224D
:0310FA00250CFFC3
:0D10FD00C2A5120FCBD2A7120FCFC2A7229F
:0D110A00D2A5120FCBD2A7120FCFC2A72281
:080FCB00C2A68F807F057E00A5
:100FD300D3EF9400EE940040147D7D7C00ED1D70F2
:0D0FE300011CED4C70F7EF1F70E61E80E35F
:010FF00022DE
:100F9F008F0C8D0D8B0E1210ACAF0C120F062000A4
:100FAF0002C322AF0D120F06200002C322AF0E1292
:0C0FBF000F06200002C3221210E9D3220A
:101037008F0C8D0D1210ACAF0C120F06200002C3DF
:1010470022AF0D120F06200002C3221210E9D3228D
:021015008F0C3E
:101017001210ACE50C04FF120F062000037F00221C
:0F102700120FF18F0DD2011210941210E9AF0DBC
:011036002297
:1010AC00D29200D2910000000000C2920000000019
:0610BC0000C291000022B9
:1010E900C29200D2910000000000D29200000000DC
:0110F90022D4
:100F0600E4FEEFA806088002C333D8FC30E704D21B
:100F1600928002C29200D2910000000000C2910E9F
:100F2600BE08DF0000D2920000D29100000030928D
:0B0F360004C2008002D200C291000043
:010F4100228D
:100FF100E4FFD292FE00C2910000000000D29100F5
:1010010000EF25E0FF3092010F00000EBE08E6C29E
:031011009100004B
:0110140022B9
:10109400200104C2928002D292000000D29100008A
:0810A400000000C291000022CF
:10080000EC4D6011E8497017ED33EC3304600DE4F2
:10081000FCFFFEFD22E933E8330470F80209B01250
:10082000097B58046009E4CC248150062850090251
:1008300009BA2840030209B7C0E0EB4A7044B98006
:1008400006D0E0FB0209A6EF4E701CBD8008EBFF4E
:10085000EAFEE9FD80EBE98DF0A4FEE5F00208E98F
:10086000E9CDF9EAFEEBFFEF89F0A4FCE5F0CE89D3
:10087000F0A42EFFE435F0CD89F0A42DFEE435F090
:100880008067EF4E7005BD80D780C3EF8BF0A4ACBE
:10089000F0EE8BF0A42CFCE435F0F8EF8AF0A42CF9
:1008A000E5F038FCE433CB8DF0A42CFCE5F03BF80C
:1008B000EE8AF0A42CFCE5F038F8E433CF89F0A4FC
:1008C0002CFCE5F038CF3400CE89F0A42FFFE5F002
:1008D0003EFEE433C98DF0A42EFEE5F039CD8AF05A
:1008E000A42FFFE5F03EFEE43DFD33D0E0FB5007D2
:1008F0000BBB000F0209BAEC2CFCEF33FFEE33FE0A
:06090000ED33FD02099237
:1009060075F020800E75F010800575F0087D007E6C
:10091600007F003392D530D503120A2CEC334010F9
:10092600EF33FFEE33FEED33FDEC33FCD5F0ED2275
:0E093600E5F0247EA2D513CC92E7CDCEFF22B1
:10094400EDD2E7CD33EC3392D524814006E4FFFEAB
:10095400FDFC22FCE4CFCECDCC24E0501174FF800A
:10096400EDC3CC13CCCD13CDCE13CECF13CF0470A7
:07097400F030D5DE020A2C71
:10097B00E9D2E7C933E833F892D5EDD2E7CD33ECC2
:07098B0033FC5002B2D5223B
:10099200EC30E7100FBF000C0EBE00080DBD0004C6
:1009A2000BEB6014A2D5EB13FCED92E7FD2274FF72
:1009B200FCFDFEFF22E480F8A2D574FF13FC7D80CB
:0309C200E480EFDF
:100D9000020A5FE493A3F8E493A34003F68001F210
:100DA00008DFF48029E493A3F85407240CC8C33364
:100DB000C4540F4420C8834004F456800146F6DF33
:100DC000E4800B0102040810204080900F72E47E42
:100DD000019360BCA3FF543F30E509541FFEE49328
:100DE000A360010ECF54C025E060A840B8E493A3EF
:100DF000FAE493A3F8E493A3C8C582C8CAC583CA1A
:100E0000F0A3C8C582C8CAC583CADFE9DEE780BED1
:010F9E000052
:1009C500EF8DF0A4A8F0CF8CF0A428CE8DF0A42E46
:0209D500FE2200
:1009D700BC000BBE0029EF8DF084FFADF022E4CC04
:1009E700F875F008EF2FFFEE33FEEC33FCEE9DECCD
:1009F700984005FCEE9DFE0FD5F0E9E4CEFD22ED13
:100A0700F8F5F0EE8420D21CFEADF075F008EF2F5C
:100A1700FFED33FD4007985006D5F0F222C398FD4D
:050A27000FD5F0EA22EA
:0E0A2C00C3E49FFFE49EFEE49DFDE49CFC22DB
:0C0A3A00ECF0A3EDF0A3EEF0A3EFF0222F
:1010C200E4FFFE120A46600C0FEF70010E09E97090
:0510D200F20A80EF228C
:100A4600BB010689828A83E0225002E722BBFE02AE
:090A5600E32289828A83E49322E1
:00000001FF
