:03000000020800F3
:0C080000787FE4F6D8FD758117020847E8
:10092B00C0F9A4B0999282F880908883C6A1868E74
:08093B000608692067657400DD
:1008C900E4F512F513C3E5139FE5129E501FE4F5F5
:1008D90014F5150515E51570020514B4E8F5E514C8
:0E08E900B403F00513E51370DC051280D8226D
:10091500758920758BFA758DFAD28EC29FD29ED2BB
:060925009CD2AFD2AC220F
:10088C00120915E50F6401450E70F8C2ACF512F5AE
:10089C001374082513F8E6F5993099FDC2990513E0
:1008AC00E513700205126405451270E58511993047
:0D08BC0099FDC299D2ACE4F50EF50F80C68F
:030023000208F7D9
:1008F700C0D075D000C007AF997510008F11851152
:0E090700A0750E00750F01C298D007D0D03237
:10080C0002088CE493A3F8E493A34003F68001F26E
:10081C0008DFF48029E493A3F85407240CC8C333ED
:10082C00C4540F4420C8834004F456800146F6DFBC
:10083C00E4800B010204081020408090093BE47E08
:10084C00019360BCA3FF543F30E509541FFEE493B1
:10085C00A360010ECF54C025E060A840B8E493A378
:10086C00FAE493A3F8E493A3C8C582C8CAC583CAA3
:10087C00F0A3C8C582C8CAC583CADFE9DEE780BE5B
:0109430000B3
:00000001FF
