:03000000020D846A
:0C0D8400787FE4F6D8FD758173020DCB7A
:10102C0047513A004C75780044697374616E63657E
:10103C003A0030313233343536373839006D6D0083
:100F770002240000046A0000000002210000500063
:100F8700000000000000000000000000000000005A
:080F970000016E00026F000072
:060A5F00120E1012104CF3
:100A6500E4F508F509AF6DAE6CAD6BAC6A120944DF
:100A75008E0A8F0BD290C2A01210EC30A0FDD28C42
:100A850020A0FDC28C120F1BAE0AAF0B7C037DE8C4
:100A95001209D78F26AE0AAF0B7C037DE81209D762
:100AA5007E007F64CFCDCFCECCCE1209D78F27AEB7
:100AB5000AAF0B7C007D641209D77E007F0ACFCD7B
:100AC500CFCECCCE1209D78F28AE0AAF0B7C007DD6
:100AD5000A1209D78D29D3E50B94F4E50A94015040
:100AE50004C2908002D290E522640145217021C2A2
:100AF500ACF508F50974262509F8E6F5993099FD50
:100B0500C2990509E509700205086404450870E500
:100B15007F647E00120FA8E5711460201460301404
:100B25006040146050240470557D417F9012100C74
:100B35007F90120FEA752A008F2B80427D427F90AD
:100B450012100C7F90120FEA752C008F2D802F7DCF
:100B5500437F9012100C7F90120FEA752E008F2F95
:100B6500801C7D407F9012100C7F90120FEA75302B
:100B7500008F318009AB337D407F90120F4B85305C
:100B8500328531330571E571D394044003E4F57181
:100B9500AE30AF317C007D641209D77C007D0A122E
:100BA50009D7AE04AF05E4FCFD900000120A3AAE89
:100BB50030AF317C007D0A1209D77C007D0A12090D
:100BC500D7AE04AF05E4FCFD900004120A3AAE303E
:100BD500AF317C007D0A1209D7AE04AF05E4FCFDF8
:100BE500900008120A3AAE30AF317C007D0A120936
:100BF500C5AA06AB071209D7AE04AF05E4FCFD9004
:100C0500000C120A3AD3EB940AEA94055004D2A2D6
:100C1500801EAE30AF317C007D0A1209C5C3EF944A
:100C250014EE94054010EF941EEE94055008C2A2F0
:100C3500D2A3D2A48028C3EF941EEE94054010EFF2
:100C45009428EE94055008C2A2C2A3D2A4800FC373
:100C5500EF9428EE94054006C2A2C2A3C2A4E522E1
:100C6500640145217035F508F509E509AE087802F6
:100C7500C333CE33CED8F92400F58274003EF58314
:100C8500A3A3A3E0F5993099FDC2990509E509707B
:0E0C95000205086404450870D1D2AC120CA60A
:030CA300020A65DD
:0C10EC00D2A17F0F7E001210ACC2A12226
:10104C00758921E4F58CF58A758BFA758DFAD28E3B
:0D105C00C29FD29ED29CD2A9D2AFD2AC22AC
:03002300020E8545
:100E8500C0E0C0F0C083C082C0D075D000C000C033
:100E950001C002C003C004C005C006C007AF9975F4
:100EA50072008F73E572457324FF92907FE87E038D
:100EB500120FA8D290752100752201C298C29CD04C
:100EC50007D006D005D004D003D002D001D000D081
:0A0ED500D0D082D083D0F0D0E032FC
:03000B000210F8E8
:0310F800C2A03261
:1010AC00D3EF9400EE9400400800EF1F70F21E8006
:0110BC00EF44
:0110BD002210
:100F1B00AF8CEFFEAD8A7C00E42DF525EC3EF5247D
:100F2B00FCAD25E412090B7B917AED793C783E12EE
:100F3B0008008F6D8E6C8D6B8C6AE4F58CF58A22B4
:100E1000C2A77F381210D27F0C1210D27F06121098
:100E2000D27F011210D27F801210D2E4F50C7BFF2A
:100E30007A10792C121097C3E50C9FEE6480F87439
:100E400080985011E50C90102C93FF1210DF120FB8
:100E5000A4050C80D97FC01210D2E4F50C7BFF7A78
:100E6000107934121097C3E50C9FEE6480F87480FB
:100E7000985011E50C90103493FF1210DF120FA45C
:040E8000050C80D904
:010E8400224B
:100CA600E4F50C7BFF7A10792C121097EF24801252
:100CB60010CFE50C25E025E02400F582E43400F5AC
:100CC60083A3A3A3E090103E93FF1210DF120FA49C
:100CD600050CE50CC3940440CAE4F50C7BFF7A10BE
:100CE6007930121097C3E50C9FEE6480F8748098F3
:100CF60050207BFF7A10792C121097EF2484121063
:100D0600CFE50C90103093FF1210DF120FA4050CE4
:100D160080CAE4F50C7BFF7A107934121097EF2421
:100D2600C0250CFF1210D27426250CF8E690103E52
:100D360093FF1210DF120FA4050CE50CC3940440B8
:100D4600D4E4F50C7BFF7A107949121097C3E50CB1
:100D56009FEE6480F874809850237BFF7A10793474
:100D6600121097EF24C4250CFF1210D2E50C901038
:0D0D76004993FF1210DF120FA4050C80C777
:010D8300224D
:0310CF00250CFFEE
:0D10D200C2A5120FA0D2A7120FA4C2A72220
:0D10DF00D2A5120FA0D2A7120FA4C2A72203
:080FA000C2A68F807F057E00D0
:100FA800D3EF9400EE940040147D7D7C00ED1D701D
:0D0FB800011CED4C70F7EF1F70E61E80E38A
:010FC5002209
:100F4B008F0C8D0D8B0E121081AF0C120EDF20004B
:100F5B0002C322AF0D120EDF200002C322AF0E120E
:0C0F6B000EDF200002C3221210BED322B1
:10100C008F0C8D0D121081AF0C120EDF200002C35D
:10101C0022AF0D120EDF200002C3221210BED3220B
:020FEA008F0C6A
:100FEC00121081E50C04FF120EDF2000037F00229B
:0F0FFC00120FC68F0DD2011210691210BEAF0D69
:01100B0022C2
:10108100D29200D2910000000000C2920000000044
:0610910000C291000022E4
:1010BE00C29200D2910000000000D2920000000007
:0110CE0022FF
:100EDF00E4FEEFA806088002C333D8FC30E704D243
:100EEF00928002C29200D2910000000000C2910EC7
:100EFF00BE08DF0000D2920000D2910000003092B5
:0B0F0F0004C2008002D200C29100006A
:010F1A0022B4
:100FC600E4FFD292FE00C2910000000000D2910020
:100FD60000EF25E0FF3092010F00000EBE08E6C2CA
:030FE60091000077
:010FE90022E5
:10106900200104C2928002D292000000D2910000B5
:08107900000000C291000022FA
:10080000EC4D6011E8497017ED33EC3304600DE4F2
:10081000FCFFFEFD22E933E8330470F80209B01250
:10082000097B58046009E4CC248150062850090251
:1008300009BA2840030209B7C0E0EB4A7044B98006
:1008400006D0E0FB0209A6EF4E701CBD8008EBFF4E
:10085000EAFEE9FD80EBE98DF0A4FEE5F00208E98F
:10086000E9CDF9EAFEEBFFEF89F0A4FCE5F0CE89D3
:10087000F0A42EFFE435F0CD89F0A42DFEE435F090
:100880008067EF4E7005BD80D780C3EF8BF0A4ACBE
:10089000F0EE8BF0A42CFCE435F0F8EF8AF0A42CF9
:1008A000E5F038FCE433CB8DF0A42CFCE5F03BF80C
:1008B000EE8AF0A42CFCE5F038F8E433CF89F0A4FC
:1008C0002CFCE5F038CF3400CE89F0A42FFFE5F002
:1008D0003EFEE433C98DF0A42EFEE5F039CD8AF05A
:1008E000A42FFFE5F03EFEE43DFD33D0E0FB5007D2
:1008F0000BBB000F0209BAEC2CFCEF33FFEE33FE0A
:06090000ED33FD02099237
:1009060075F020800E75F010800575F0087D007E6C
:10091600007F003392D530D503120A2CEC334010F9
:10092600EF33FFEE33FEED33FDEC33FCD5F0ED2275
:0E093600E5F0247EA2D513CC92E7CDCEFF22B1
:10094400EDD2E7CD33EC3392D524814006E4FFFEAB
:10095400FDFC22FCE4CFCECDCC24E0501174FF800A
:10096400EDC3CC13CCCD13CDCE13CECF13CF0470A7
:07097400F030D5DE020A2C71
:10097B00E9D2E7C933E833F892D5EDD2E7CD33ECC2
:07098B0033FC5002B2D5223B
:10099200EC30E7100FBF000C0EBE00080DBD0004C6
:1009A2000BEB6014A2D5EB13FCED92E7FD2274FF72
:1009B200FCFDFEFF22E480F8A2D574FF13FC7D80CB
:0309C200E480EFDF
:100D9000020A5FE493A3F8E493A34003F68001F210
:100DA00008DFF48029E493A3F85407240CC8C33364
:100DB000C4540F4420C8834004F456800146F6DF33
:100DC000E4800B0102040810204080900F77E47E3D
:100DD000019360BCA3FF543F30E509541FFEE49328
:100DE000A360010ECF54C025E060A840B8E493A3EF
:100DF000FAE493A3F8E493A3C8C582C8CAC583CA1A
:100E0000F0A3C8C582C8CAC583CADFE9DEE780BED1
:010F9F000051
:1009C500EF8DF0A4A8F0CF8CF0A428CE8DF0A42E46
:0209D500FE2200
:1009D700BC000BBE0029EF8DF084FFADF022E4CC04
:1009E700F875F008EF2FFFEE33FEEC33FCEE9DECCD
:1009F700984005FCEE9DFE0FD5F0E9E4CEFD22ED13
:100A0700F8F5F0EE8420D21CFEADF075F008EF2F5C
:100A1700FFED33FD4007985006D5F0F222C398FD4D
:050A27000FD5F0EA22EA
:0E0A2C00C3E49FFFE49EFEE49DFDE49CFC22DB
:0C0A3A00ECF0A3EDF0A3EEF0A3EFF0222F
:10109700E4FFFE120A46600C0FEF70010E09E970BB
:0510A700F20A80EF22B7
:100A4600BB010689828A83E0225002E722BBFE02AE
:090A5600E32289828A83E49322E1
:00000001FF
