:100B460047513A0044697374616E63653A00303107
:0D0B56003233343536373839004C757800AD
:0F0BCB00C2A5120BA6D2A77F05120BACC2A722A0
:0F0BDA00D2A5120BA6D2A77F05120BACC2A72281
:10098200E4F5087BFF7A0B7946120B91EF24802560
:1009920008FF120BCBE50825E025E02400F582E4F0
:1009A2003400F583A3A3A3E0900B5493FF120BDA58
:1009B2007F05120BAC0508E508C3940440C5E4F5B5
:1009C200087BFF7A0B795F120B91C3E5089FEE64F7
:1009D20080F874809850257BFF7A0B7946120B9130
:1009E200EF24842508FF120BCBE508900B5F93FFE1
:0C09F200120BDA7F05120BAC050880C563
:0109FE0022D6
:1009FF00C2A77F38120BCB7F0C120BCB7F06120BCB
:100A0F00CB7F01120BCB7F80120BCBE4F5087BFF62
:100A1F007A0B7946120B91C3E5089FEE6480F87448
:100A2F0080985013E508900B4693FF120BDA7F0561
:100A3F00120BAC050880D77FC0120BCBE4F5087BF7
:100A4F00FF7A0B794A120B91C3E5089FEE6480F889
:100A5F007480985013E508900B4A93FF120BDA7FBE
:080A6F0005120BAC050880D74D
:010A7700225C
:100800001209FFE562146020146030146040146027
:1008100050240470557D417F90120B267F90120B5F
:10082000047522008F2380427D427F90120B267F29
:1008300090120B047524008F25802F7D437F90122A
:100840000B267F90120B047526008F27801C7D409D
:100850007F90120B267F90120B047528008F298041
:1008600009AB2B7D407F90120AB485282A85292B5D
:100870000562E562D394044003E4F562AE28AF2933
:100880007C007D641209087C007D0A120908AE0410
:10089000AF05E4FCFD90000012095DAE28AF297C95
:1008A000007D0A1209087C007D0A120908AE04AF17
:1008B00005E4FCFD90000412095DAE28AF297C0020
:1008C0007D0A120908AE04AF05E4FCFD9000081291
:1008D000095DAE28AF297C007D0A1208F6120908CE
:1008E000AE04AF05E4FCFD90000C12095D12098214
:0608F00075A0FF020803E1
:060BA600C2A68F807F054E
:0D0BAC00EFD3940040077E7DDEFE1F80F336
:010BB9002219
:100AB4008F088D098B0A120B7BAF08120A7820006D
:100AC40002C322AF09120A78200002C322AF0A121D
:0C0AD4000A78200002C322120BBAD322C1
:100B26008F088D09120B7BAF08120A78200002C3CA
:100B360022AF09120A78200002C322120BBAD3226E
:020B04008F0858
:100B0600120B7BE50804FF120A782000037F0022FF
:0F0B1600120AE08F09D201120B63120BBAAF095A
:010B250022AD
:100B7B00D29200D2910000000000C292000000004F
:060B8B0000C291000022EF
:100BBA00C29200D2910000000000D2920000000010
:010BCA002208
:100A7800E4FEEFA806088002C333D8FC30E704D2AE
:100A8800928002C29200D2910000000000C2910E32
:100A9800BE08DF0000D2920000D291000000309220
:0B0AA80004C2008002D200C2910000D6
:010AB3002220
:100AE000E4FFD292FE00C2910000000000D291000B
:100AF00000EF25E0FF3092010F00000EBE08E6C2B5
:030B000091000061
:010B030022CF
:100B6300200104C2928002D292000000D2910000C0
:080B7300000000C29100002205
:03000000020BE907
:0C0BE900787FE4F6D8FD758162020800F8
:1008F600EF8DF0A4A8F0CF8CF0A428CE8DF0A42E16
:02090600FE22CF
:10090800BC000BBE0029EF8DF084FFADF022E4CCD3
:10091800F875F008EF2FFFEE33FEEC33FCEE9DEC9C
:10092800984005FCEE9DFE0FD5F0E9E4CEFD22EDE2
:10093800F8F5F0EE8420D21CFEADF075F008EF2F2C
:10094800FFED33FD4007985006D5F0F222C398FD1D
:050958000FD5F0EA22BA
:0C095D00ECF0A3EDF0A3EEF0A3EFF0220D
:100B9100E4FFFE120969600C0FEF70010E09E970A4
:050BA100F20A80EF22C2
:10096900BB010689828A83E0225002E722BBFE028C
:09097900E32289828A83E49322BF
:00000001FF
