:03000000020A41B0
:0C0A4100787FE4F6D8FD758119020A8860
:100C83007765696768743A303033346B6700446959
:100C93007374616E63653A003031323334353637FD
:060CA3003839006D6D0000
:100CD00002080000040E00000000011200021300D0
:010CE0000013
:060ACD00120B4C120CE2BA
:100AD300AF11AE10AD0FAC0E1209448E158F16E494
:100AE300F517F518C2A0120D0930A0FDD28C20A075
:100AF300FDC28C120C2DAE15AF167C037DE81209D6
:100B0300C58F0AAE15AF167C037DE81209C57E00BA
:100B13007F64CFCDCFCECCCE1209C58F0BAE15AF30
:100B2300167C007D641209C57E007F0ACFCDCFCE2F
:100B3300CCCE1209C58F0CAE15AF167C007D0A1200
:070B430009C58D0D120BC165
:020B4A008087A2
:0C0D0900D2A17F0F7E00120CBEC2A122FE
:0D0CE200758901E4F58CF58AD2A9D2AF2204
:03000B00020D15CE
:030D1500C2A03247
:100CBE00D3EF9400EE9400400800EF1F70F21E80F8
:010CCE00EF36
:010CCF002202
:100C2D00AF8CEFFEAD8A7C00E42DF509EC3EF508A6
:100C3D00FCAD09E412090B7B917AED793C783E12FB
:100C4D0008008F118E108D0F8C0EE4F58CF58A2215
:100B4C00C2A77F38120CEF7F0C120CEF7F06120C31
:100B5C00EF7F01120CEF7F80120CEFE4F5197BFF95
:100B6C007A0C7983120CA9C3E5199FEE6480F87492
:100B7C0080985011E519900C8393FF120CFC120C09
:100B8C0061051980D97FC0120CEFE4F5197BFF7A4F
:100B9C000C7991120CA9C3E5199FEE6480F874804E
:100BAC00985011E519900C9193FF120CFC120C61EA
:040BBC00051980D9BE
:010BC0002212
:100BC100E4F5197BFF7A0C7991120CA9EF24C02569
:100BD10019FF120CEF740A2519F8E6900C9B93FF8C
:100BE100120CFC120C610519E519C3940440D4E4FC
:100BF100F5197BFF7A0C79A6120CA9C3E5199FEEB2
:100C01006480F874809850237BFF7A0C7991120CE0
:100C1100A9EF24C42519FF120CEFE519900CA69336
:0B0C2100FF120CFC120C61051980C7CB
:010C2C0022A5
:0D0CEF00C2A5120C5DD2A7120C61C2A72293
:0D0CFC00D2A5120C5DD2A7120C61C2A72276
:080C5D00C2A68F807F057E0016
:100C6500D3EF9400EE940040147D6E7C00ED1D7072
:0D0C7500011CED4C70F7EF1F70E61E80E3D0
:010C8200224F
:10080000EC4D6011E8497017ED33EC3304600DE4F2
:10081000FCFFFEFD22E933E8330470F80209B01250
:10082000097B58046009E4CC248150062850090251
:1008300009BA2840030209B7C0E0EB4A7044B98006
:1008400006D0E0FB0209A6EF4E701CBD8008EBFF4E
:10085000EAFEE9FD80EBE98DF0A4FEE5F00208E98F
:10086000E9CDF9EAFEEBFFEF89F0A4FCE5F0CE89D3
:10087000F0A42EFFE435F0CD89F0A42DFEE435F090
:100880008067EF4E7005BD80D780C3EF8BF0A4ACBE
:10089000F0EE8BF0A42CFCE435F0F8EF8AF0A42CF9
:1008A000E5F038FCE433CB8DF0A42CFCE5F03BF80C
:1008B000EE8AF0A42CFCE5F038F8E433CF89F0A4FC
:1008C0002CFCE5F038CF3400CE89F0A42FFFE5F002
:1008D0003EFEE433C98DF0A42EFEE5F039CD8AF05A
:1008E000A42FFFE5F03EFEE43DFD33D0E0FB5007D2
:1008F0000BBB000F0209BAEC2CFCEF33FFEE33FE0A
:06090000ED33FD02099237
:1009060075F020800E75F010800575F0087D007E6C
:10091600007F003392D530D503120A1AEC3340100B
:10092600EF33FFEE33FEED33FDEC33FCD5F0ED2275
:0E093600E5F0247EA2D513CC92E7CDCEFF22B1
:10094400EDD2E7CD33EC3392D524814006E4FFFEAB
:10095400FDFC22FCE4CFCECDCC24E0501174FF800A
:10096400EDC3CC13CCCD13CDCE13CECF13CF0470A7
:07097400F030D5DE020A1A83
:10097B00E9D2E7C933E833F892D5EDD2E7CD33ECC2
:07098B0033FC5002B2D5223B
:10099200EC30E7100FBF000C0EBE00080DBD0004C6
:1009A2000BEB6014A2D5EB13FCED92E7FD2274FF72
:1009B200FCFDFEFF22E480F8A2D574FF13FC7D80CB
:0309C200E480EFDF
:100A4D00020ACDE493A3F8E493A34003F68001F2E8
:100A5D0008DFF48029E493A3F85407240CC8C333AA
:100A6D00C4540F4420C8834004F456800146F6DF79
:100A7D00E4800B0102040810204080900CD0E47E2D
:100A8D00019360BCA3FF543F30E509541FFEE4936E
:100A9D00A360010ECF54C025E060A840B8E493A335
:100AAD00FAE493A3F8E493A3C8C582C8CAC583CA60
:100ABD00F0A3C8C582C8CAC583CADFE9DEE780BE18
:010CE1000012
:1009C500BC000BBE0029EF8DF084FFADF022E4CC16
:1009D500F875F008EF2FFFEE33FEEC33FCEE9DECDF
:1009E500984005FCEE9DFE0FD5F0E9E4CEFD22ED25
:1009F500F8F5F0EE8420D21CFEADF075F008EF2F6F
:100A0500FFED33FD4007985006D5F0F222C398FD5F
:050A15000FD5F0EA22FC
:0E0A1A00C3E49FFFE49EFEE49DFDE49CFC22ED
:100CA900E4FFFE120A28600C0FEF70010E09E970CB
:050CB900F20A80EF22A9
:100A2800BB010689828A83E0225002E722BBFE02CC
:090A3800E32289828A83E49322FF
:00000001FF
